:020000040800F2
:10000000F81C0020594A00084548000847480008E5
:10001000494800084B4800084D480008000000000F
:100020000000000000000000000000004F48000831
:1000300051480008000000005348000855480008D7
:10004000814A0008854A0008894A00085948000882
:100050008D4A0008914A0008954A0008994A00080C
:100060009D4A0008A14A0008A54A0008A94A0008BC
:10007000AD4A0008B14A0008B54A0008B94A00086C
:10008000BD4A0008C14A0008C54A0008C94A00081C
:10009000CD4A0008D14A0008D54A00086548000842
:1000A000D94A0008DD4A0008E14A0008E54A00088C
:1000B000E94A0008ED4A0008F14A0008F54A00083C
:1000C000F94A0008FD4A0008014B0008054B0008EA
:1000D000094B00080D4B0008114B0008154B000898
:1000E00085480008194B00081D4B0008214B0008EB
:1000F000254B0008294B00082D4B0008314B000808
:10010000354B0008394B00083D4B0008414B0008B7
:10011000454B0008494B00084D4B0008514B000867
:10012000554B0008594B00085D4B0008614B000817
:10013000654B0008694B00086D4B0008714B0008C7
:10014000754B0008794B00087D4B0008814B000877
:10015000854B0008894B00088D4B0008914B000827
:10016000954B0008994B00089D4B0008A14B0008D7
:10017000A54B0008A94B000800000000000000008B
:10018000AD4B0008B14B00082DE9F0439FB000BF14
:1001900065A6269CDFF8B48A8DF83B4002910024C6
:1001A0000B944FF0FF37044691461D460AE019F8BC
:1001B000011B0298A0470028029000F0A1800B9834
:1001C000401C0B9099F8000050B12528EFD1002178
:1001D0000022059106920791089209910A9203E084
:1001E0000B98A5E041F0010119F8010F2028F9D082
:1001F00023280CD02B2804D02D2805D0302809D056
:1002000080E041F00201EFE741F00401ECE741F04A
:100210000801E9E741F01001E6E70D920AE00D98C8
:10022000404505DA00EB800002EB4002303A0D92C7
:1002300009F1010999F80020A2F130000A28EED353
:1002400099F800002E2818BF0C9726D119F8010F35
:100250002A2808D12868286009F1010950F8042BE0
:1002600028600C9219E02D280CBF09F1010900202B
:1002700000220C920BE040B90C9A424505DA02EBE1
:10028000820203EB4203303B0C9309F1010999F818
:100290000030A3F130020A2AEDD3ADF83810304611
:1002A00099F8001000F086FE08B119F8010B8DF8DE
:1002B0003A009DF83A00682805D199F800006828AE
:1002C0000CD1622106E06C2804BF99F800006C286C
:1002D00004D171218DF83A1009F1010910A8049098
:1002E0002A4619F8013B6946204600F061F838B902
:1002F00010AA6946204600F08FF900287FF562AF0A
:10030000384615E02A2888D12A682A6052F8040B5A
:100310002A6000280D9003D540420D9041F0040161
:1003200009F101098CE70000686A6C747A4C0000DE
:100330001FB0BDE8F083622820D0682811D06A2859
:1003400003D06C2827D0712825D10868C01D20F063
:1003500007000860D0E900230830086019461046FD
:100360007047002A0A680A60106803D0121D0A60EC
:1003700000B217E0121D0A6080B217E0002A0A6876
:100380000A60106803D0121D0A6040B20AE0121D14
:100390000A60C0B20AE0002A0A680A60106803D046
:1003A000121D0A60C1177047121D0A6000217047B4
:1003B00070B51C460D46B4F125002E69114600F0BB
:1003C00019811C3868D0001F022865D9133842D023
:1003D000093861D0801E16D0401E1ED0401E022853
:1003E0005AD9001F19D0401F00F08180401E32D022
:1003F000401E00F0CB80C01E00F0DA80801E2AD0A4
:10040000C01E28D0FCE06869421C6A610A680A6064
:1004100052F8043B0A603354FCE095F83A0001229C
:10042000FFF789FFC5E90001002904D56869411C6F
:1004300069612D220DE0288F810704D56869411C70
:1004400069612B2205E0C00721D56869411C6961FB
:10045000202232541BE095F83A000022FFF76BFF90
:10046000C5E9000195F83800010710D5D5E900234A
:10047000002B08BF002A0AD044F02000782806D1BB
:10048000686930213154401C421C6A613454214651
:1004900068693044E86087E00868C01D20F0070004
:1004A0000860D0E9002308300860C5E90023D5E9D9
:1004B0000001C80F04D06869411C69612D220DE05C
:1004C000288F810704D56869411C69612B2205E0EA
:1004D000C00704D56869411C6961202232546869EB
:1004E0003044E8602146284600F0C4F992E005F166
:1004F0003A02507820B14FF0FF340FF6202062E02E
:100500001078622808D0682824D06A2812D06C2875
:100510002ED071280ED02BE00A680A6052F8040B26
:100520000A6020B94FF0FF340FF608204BE0E96A6B
:1005300001706FE00A680A6052F8040B0A6020B983
:100540004FF0FF340FF6EC103DE0EA6AD317C0E934
:1005500000235FE00A680A6052F8040B0A6020B9C1
:100560004FF0FF340FF6CC102DE0E96A018051E026
:100570000A680A6052F8040B0A6020B94FF0FF3491
:100580000FF6B0101FE0E96A016043E00A680A60F4
:1005900052F8040B0A60002120F0000221F0FF3322
:1005A000C5E90023EE607821284600F0BBF831E071
:1005B0000868086050F8044B0860EC603CB94FF0E4
:1005C000FF340FF6881000F001FD201A70BD2E6B6D
:1005D000002E04D5204600F019FD044608E03246FE
:1005E0000021204600F02EFD002814BF041B3446D5
:1005F000AC610FE06869411C69612522325409E051
:100600006969481C686125227254210002D0431C8C
:100610006B613454002070BD2DE9FC410F46064645
:1006200090467A6B7869396ABC6A121AB869521AAC
:10063000796A121AF869521A121A97F83800141BBC
:1006400041070FD42020002C8DF800000ADD25463C
:1006500001236A463946304600F048FC00285DD147
:100660006D1EF5D17B6942463946304600F03EFCAE
:10067000002853D130208DF800003D6A002D09DD9F
:1006800001236A463946304600F030FC002845D147
:100690006D1EF5D1BB69FA683946304600F026FC7C
:1006A00000283BD130208DF800007D6A002D08DD48
:1006B00001236A463946304600F018FC70BB6D1EB7
:1006C000F6D1F868B969FB6942183946304600F03E
:1006D0000DFC18BB30208DF80000BD6A002D08DD30
:1006E00001236A463946304600F000FCB0B96D1E61
:1006F000F6D197F8380041070DD52020002C8DF851
:10070000000008DD01236A463946304600F0EEFB62
:1007100020B9641EF6D10020BDE8F6814FF0FF300D
:10072000BDE8F6812DE9FC4307466F293E6908BF05
:10073000082405D041F02000782814BF0A24102492
:100740003C25D7E90023642918BF692990469946BA
:1007500005D1002B03D5D8F1000869EB4909B9F19F
:10076000000F08BFB8F1000F1FD1386BE8B9082C93
:100770004CD197F83800010748D530203B2586F842
:100780003B0043E000280ED597F8380000F0140035
:10079000102808D17B6B7969386A5B1A1B1A9A1A80
:1007A000002AC8BF3A62BDE8F3838DF800104046C6
:1007B00049462246E31700F071FC3032D0B26D1E7C
:1007C0003A28019504DB9DF80000A0F151018A1838
:1007D0007255404649462246E31700F05FFC8046CA
:1007E0005FEA010908BFB8F1000F03D0F86871197A
:1007F0008842DCD3082C09D197F83800010705D5C9
:10080000705D302802D06D1E30207055C5F13C025D
:10081000BA617119F960386B8242B3DA821A3A62AE
:100820004FF6EF70398F01403987BDE8F3832DE92A
:10083000D04306460F4614464FF00008DFF81094E8
:1008400012E0E00707D542464B463046394600F0F5
:10085000A9FC06460F464046494642464B4600F034
:10086000A1FC641080468946002CEAD13046394606
:10087000BDE8D0832DE9F84F05468A464AF02004AA
:100880008EB0D5E90089612C02AE09D0286B002812
:1008900048BF062003D408BF672C01D1012028637C
:1008A000D5E900014A005215521C0DD10B030BD0A3
:1008B000AAF1610103201A29A86102D20FF2A861EE
:1008C00010E00FF2A8610DE04A005215521C0ED143
:1008D0000B030CD1AAF1610103201A29A86116D3D8
:1008E0000FF29061E868032200F02EFDC0E1CDE92F
:1008F0000C01DDE90C2323F00043B3F5801F0DD27A
:100900000027002B08BF002A019703D111E00FF246
:100910006061E7E701AA00F023FD0AE0CD48CE4977
:1009200000EB1350DDE90C2301900B40CB4910463E
:100930001943C5E90001612C0DD1E868302101702F
:10094000821CBAF1610FEA600CBF78215821417016
:100950006869801C6861D5E90001CDE90C01DDE919
:100960000C2333F0004104BF0028002300F048812D
:10097000612C40F0A080286B494600284CBF4FF006
:10098000210B00F1010B404600220023DDE90C8918
:1009900000F01EFD01990BF1010738BF89F00049F5
:1009A000091F002F01918DF808200DF1090040F377
:1009B0003581A94900910646404649460022002358
:1009C00000F01EFD80F029814800400D00F11C025E
:1009D00011D0002A0FDD40F2FF739A4205DBA049D7
:1009E00009F000400143002011E0009B194041EA5A
:1009F000025140460BE028F0000039F0004108BFEA
:100A000000280FBF49461C22494600F011FD8046D0
:100A1000894600F0ABFDFF1F002F044609DD00F002
:100A2000C3FD02460B464046494600F0CFFD8046D6
:100A30008946F01D072104E004F00F0200F8012DA3
:100A40002411002C01DD491EF6D5491E5CBF002291
:100A500000F8012DF9D5DCE00020194602AA0A446D
:100A600000E05B1E12F80149491E8442F9D00F28AC
:100A700004D10DF10900425C521C4254002904D5F6
:100A80000198001D02AE5B1C0190581E0CD4311859
:100A9000AAF13A040A783032D7B23A2FA8BFA21886
:100AA000401E01F80129F5D5286B002840F1A780E8
:100AB000591E2963A3E001996A4A47F297504143BE
:100AC00091FBF2F2019229F00046D2F1070204DD17
:100AD00040463146FFF7ABFE0AE052420020624931
:100AE000FFF7A5FE02460B464046314600F0E0FD0A
:100AF0008046662C286B06BF019F0A3706273F18E1
:100B0000142FC8BF142730208DF8080089460DF136
:100B1000090000E03046002F34DD064640464946D5
:100B200000F0EAFE01460A4606F1080304200A2600
:100B3000B2FBF6F606EB860EA2EB4E02303203F85D
:100B4000012C0A22B6FBF2F202EB820EA6EB4E0655
:100B50003036401E03F8026DE9D1083F002F03F143
:100B60000806D7DD084600F0DBFE02460B4640468D
:100B7000494600F02BFD00223C4B00F013FB804661
:100B80008946CBE70DF10901401A0DF1090604E091
:100B90000199491E401E0191761C31783029F7D009
:100BA000662C02D10199491C03E0652C0CBF012180
:100BB00000212B6BCB189842B8BF431E002B1ED4CC
:100BC000834204DAF05C3528A8BF392000DA3020EF
:100BD0001946721E02EB010800E05B1E18F801992D
:100BE000491E8145F9D0392802D1705C401C7054EF
:100BF000002904D50198401C16465B1C0190019801
:100C000000B200901BB232465146284600F034F83C
:100C10002EE0C61D002F3FF7CFAE30460DF1090183
:100C2000401A03465845C8BF5B46002B0DF1090624
:100C30003FF53AAF8342BFF60FAF0DF10900C15C3B
:100C400007297FF709AF0F2007E70000CBCCCC0CBA
:100C50000000244002FCFFFFFFFF0F800000E03F88
:100C60000000F07FA08601000000F03F84D797418C
:100C70000FB0BDE8F08F00002DE9F84783B00646BD
:100C80008A461746984600F059FEB8F1000F406AB0
:100C9000356B90F8009002DC4FF00108B6A74AF0DF
:100CA0002000BDF93040662808BF641C15D06728B5
:100CB00040F0848014F1040FC0F28680AC4280F2D0
:100CC000838096F83800641C010702D4A845B8BF99
:100CD000454620B22D1A48BF00250FFA84FAF06865
:100CE000B169BAF1000F25DC4A1C30234354002DB2
:100CF00003DC96F83800010703D5F06800F802908D
:100D0000521C15EB0A0FB8BF6C4220B24419414285
:100D10004445B8BFA046B26171620FFA88F5F5612B
:100D2000F068B3692A463946184400F00DFB641B8D
:100D3000B462C4E022B29045084417DA424639460C
:100D400000F002FBB0694044B061AAEB0801002D3D
:100D5000716203DC96F838100A0705D5F16801F8CE
:100D60000090F069401CF061B562A8E0394600F0DF
:100D7000EBFAB069002D5044A8EB040803DC96F8A8
:100D800038100A0703D5F16801F80090401CB061E3
:100D90000FFA88F08542F368B069B8BFA8460FFA29
:100DA00088F207EB0A01184400F0CEFAB1690FFA95
:100DB00088F00144B161281A706280E0BAF1610FD5
:100DC00014D14FF0700A16E0A84504DA96F83810EE
:100DD0000A0758BF45466D1E48BF0025BAF1670F88
:100DE00014BF4FF0450A4FF0650A04E0BAF1410F15
:100DF00008BF4FF0500AB169F368481CB061002D7C
:100E000017F8012B5A5403DC96F838100A071BD543
:100E1000F168431CB36101F80090002D14DDA8F1C6
:100E200001080FFA88F039468542F768B8BFA8462E
:100E30000FFA88F2F81800F087FAB0690FFA88F113
:100E400008446D1AB0617562F068B1690844002CFD
:100E500080F800A003D42B224270811C03E02D21D6
:100E600041706442811C00206A460AE023460A243D
:100E700093FBF4F404EB8405A3EB450302F8013B78
:100E8000401C24B2002CF1DC012806DC4AF02002D0
:100E9000652A04BF302201F8012B48B9302001F83F
:100EA000010B07E0401E1DF80030303301F8013B14
:100EB0000028F7DCF268B0691044091AF16196F86D
:100EC000380000F0140010280DD17269B169706A01
:100ED0008A18F1698218B06A8A188218706B824287
:100EE000BCBF821A326204B0BDE8F087F8B505468F
:100EF0000E4617461C46002074B117F8011BB06857
:100F0000A847B06030B1F06A401CF0620020641E57
:100F1000F3D1F2BD4FF0FF30F2BD00007072696E88
:100F200074665F733A20256E20646973616C6C6F20
:100F3000776564007072696E74663A20626164203D
:100F4000256E20617267756D656E74007072696ED2
:100F500074665F733A206261642025732061726752
:100F6000756D656E740000006E616E004E414E003E
:100F7000696E6600494E4600300030B4002513E02B
:100F800050F8042BD30744BFA9F101039A18091F95
:100F9000042942F8045BFAD213468C0744BF15803B
:100FA0009B1CC90748BF1D7050F8041B0029E7D1DE
:100FB00030BC7047C9B202788A421AB11CBF10F81F
:100FC000012FF9E718BF00207047000080B500B975
:100FD00006A005490B681BB122220021984701E0B9
:100FE00000F0B0FC222002BDF4080020636F6E7395
:100FF000747261696E742068616E646C65723A2007
:10100000626164206D6573736167650000F10103BF
:10101000810704D010F8011B820781B1FAD1026860
:10102000A2F10131914311F0803104BF50F8042F37
:10103000F6E709BAB1FA81F100EBD100401CC01A01
:1010400070470000C9B2830706D0521E22D310F8A1
:10105000013B9942F7D11FE0083A13D302F1040291
:1010600041EA012141EA014150F8043B121F21BF2E
:101070004B40A3F1013C2CEA030C1CF0803FF3D061
:10108000C9B2001F083210F8013B521E28BF91EA76
:10109000030FF8D818BF0120401E7047D3BBD9B149
:1010A000B2F5803F5BD2022A1ED98C46B1FBF2F129
:1010B00002FB11C31B0443EA1043B3FBF2FC02FB27
:1010C0001C3380B240EA0343B3FBF2F002FB103260
:1010D00040EA0C4000237047022A05D98446B0FB41
:1010E000F2F002FB10C270474AB105D100F00102D4
:1010F00049085FEA3000704700220023704700F083
:1011000025BC0B000200002100207047F7D300220D
:1011100000237047904271EB030CF2D370B5B1FA23
:1011200081F4B3FA83F52C1BA340C4F1200532FAF5
:1011300005F63343A2405FF00046E64002E05B085C
:101140005FEA3202841A71EB030524BF2046294668
:101150007641F4D302000B003000002170BD70B561
:10116000B1FA81F4B2FA82F5C4F120046419B4F141
:101170002006DAD3B2405FF00044F440002502E0DC
:1011800052085FEA3303C61A71EB020E24BF3046E1
:10119000714664416D41F3D302000B002000290029
:1011A00070BD0000B0B581EA030C0CF0004C40F2B9
:1011B000FF7515EA11541DBF15EA1357AC42AF4233
:1011C00039E0E41923EA455343F48013C90241F09E
:1011D000004141EA505EC7021100A7FB020200284D
:1011E0004FF00000EEFB01204FF00001E3FB072170
:1011F00018BF42F00102401800214941E3FB0E01F3
:10120000A4F580640F0302D252004041494154F1D9
:1012100001046CDD470872F1004250F1000051EB0F
:101220000451A1F580115CBF41EA0C01B0BD4CEA4C
:1012300005510020B0BD05EA1357AC4214BFAF42C0
:1012400041E050EA410E1CBF52EA430E02E0614603
:101250000020B0BD24423C441BD15FEA070EF6D00B
:10126000090302BF01460020AEF1140EB1FA81F766
:10127000AEEB070401FA07FE0C37C7F1200100FAB4
:1012800007F7C8404EEA000E23EA455343F48013A3
:10129000A2E733F00043B3FA83F704BFB2FA82FE49
:1012A00077440B3FE41BB7F1200E2FBF02FA0EF379
:1012B000BB40C7F1200E22FA0EFE38BF43EA0E03F0
:1012C000BA40641C82E750EA410E14BF52EA430E52
:1012D0006FF000014FF4001717EB430F8ABF194658
:1012E00017EB410FB5E74CEA05510020B0BDD4F132
:1012F0000104B4F120070FDAC4F12007520828BF17
:1013000042F0010210FA07F501FA07F7E1BF2A439C
:10131000E0403843E1400FE0352C98DCC7F1200471
:1013200052EA400220FA07F218BF42F0010231FAF5
:1013300007F0A1400A43002172F1004250F1000081
:1013400051EB0C01B0BD00004AB1000011F8013BA7
:10135000521E00F8013B1CBF11F8013BF8E7704733
:1013600010B5144600F002F8226010BDC1F30A5314
:1013700043B14A0012F5001F28D2A3F2FE32A1EBBE
:101380000251704750EA410C20D001F0004C31EA84
:101390000C01B1FA81F204BFB0FA80F3D2180B3A13
:1013A000B2F120032CBF00FA03F1914041EA0C0195
:1013B0003EBFC2F1200C20FA0CF319439040524278
:1013C00040F2FD33D21A01EB0351704700227047FF
:1013D0004FF4001C1CEB410F94BF1CEB430F09E0C2
:1013E00041EA030C50EA4C0C52EA0C0C03D299422D
:1013F00008BF9042704714BF8B4282427047000082
:101400004FF4001C1CEB410F94BF1CEB430F09E091
:1014100041EA030C50EA4C0C52EA0C0C03D28B420A
:1014200008BF8242704714BF994290427047000043
:10143000124254D440F2FF7C1CEA11530FD0634592
:1014400031D09B1863453CBF01EB0251704701F05E
:10145000004141EA0C510020AFF30080704750EA90
:10146000410320D001F0004C91EA0C011CD0B1FAEC
:1014700081F30B3B9A420DD9D21A994051EA0C01E3
:10148000C3F1200C20FA0CFC61449840531C40F23C
:10149000FF7CD7E7914041EA0C01C2F1200C20FA11
:1014A0000CF3194390407047B0FA80F31533202BAA
:1014B000E0D3202AEED3203A203B9A4209D9D21A0F
:1014C00000FA03F141EA0C010020531C40F2FF7CBA
:1014D000B8E700FA02F141EA0C01002070475242DD
:1014E00040F2FF7C1CEA11530DD06345DBD0B2EB18
:1014F000030C3CBFA1EB025170470CF1010221EA41
:10150000035141F4801150EA410CCCD001F0004C61
:10151000352A27DC30B481EA0C01B2F1200309DA64
:10152000C2F12003044601FA03F5D0402843D1401C
:101530009C400CE0C3F12002450020FA03F418BFE0
:1015400044F0010421FA03F091400C43002174F1AE
:10155000004550F1000051EB0C01244230BC7FF4F7
:101560007BAF70476146002076E70000C1F30A5365
:1015700040F2FE329B1A14DDD3F120034FEAE172F0
:1015800008DDC90241EA505141F00040D8408018BE
:101590005040704703F2E13010B1D24382F0004076
:1015A0007047002070470000C11768B14840401ADA
:1015B000B0FA80F29040D21CC907C2F5846241EAB9
:1015C000025202EBD02140057047000070B44FF08A
:1015D000004591EA030F40F1BB816B40841A71EB27
:1015E000030603D2001BB141121973414FF4001CD2
:1015F0001CEB410F34BF7CEB430442E00C0DA4EB29
:101600001356352E4FDC45EAC323DB0A45EAC121D8
:10161000C912B6F120050DDD63FA05F6EB4086EA46
:101620000305124218BF45F00105C01851F1000131
:101630000CD213E062FA06F5F2405540F3415A40ED
:10164000B340F3405A408018594107D349085FEA34
:1016500030005FEA350528BF45F0010501F580112E
:10166000420875F1004250F1000041EB04514E0078
:1016700016F5001F70BC38BF70470020090D090522
:1016800070471CEB410F10D252EA43060BD0BCEB63
:10169000410F05D80C0DAB43661E342EB6DD02E0BB
:1016A000AB438018594170BC704770BC7047000054
:1016B000F0B540F2FF7581EA030C0CF0004C15EA1E
:1016C00011541DBF15EA1357AC42AF42E5E0BC41CF
:1016D000C1F31301C3F31303801A994143F4801338
:1016E00004D2641E4000494180185941C90241EAB0
:1016F0005051B1FBF3F603FB1611A2FB0675D7EBB5
:10170000C020A94102D2761E80185941C90241EA7F
:101710005051B1FBF3FE03FB1E11A2FB0E75D7EB7C
:10172000C020A94103D2AEF1010E801859418902AF
:1017300041EA9051760546EA8E2EB1FBF3F603FBA3
:101740001611A2FB0675D7EB8020A94102D2761EA6
:1017500080185941C90241EA50514EEA060EB1FBC8
:10176000F3F603FB1611A2FB0675D7EBC020A941C7
:1017700002D2761E80185941C90241EA5051B1FB8C
:10178000F3F703FB1711A2FB0735D3EBC020A941E8
:1017900067F100070CBF004247F0010766F3D52749
:1017A0004FEA1E31B80814F5806412DDBD0775F1EB
:1017B000004250EB0E5051EB045111F5801F5CBFFD
:1017C00041EA0C01F0BD4CF07F6141F0E0410020A6
:1017D000F0BDBD076D0840EA0E5041F48011D4F110
:1017E0000104B4F120060ADAC4F120060200E04048
:1017F00001FA06F3E1401843B24015430EE0342CE1
:1018000013DCC6F1200445EA40056D0820FA06F213
:10181000154321FA06F0A1400D43002175F1004265
:1018200050F1000051EB0C01F0BD00205FEA0C010B
:10183000F0BDCFB992185B41B3FA83F704BFB2FA97
:1018400082F6BF190B3FB7F120062FBF02FA06F34D
:10185000BB40C7F1200622FA06F638BF3343BA4030
:101860001CB1E419641E33E77F4231F00041B1FA44
:1018700081F404BFB0FA80F6A4190B3CB4F1200641
:101880002FBF00FA06F1A140C4F1200620FA06F6A7
:1018900038BF3143A0403C1B1AE7AC421ABF05EAEF
:1018A0001357AF4212E050EA41061CBF52EA43060A
:1018B000BFE750EA4107304661461CBF41EA055187
:1018C000F0BD52EA430C08BFC143F0BD00204FF405
:1018D000001616EB410F98BF16EB430F08BF16EB2F
:1018E000410F24BFC14305E016EB430F0CBF614617
:1018F0004CEA0551F0BD0000400D491840EA812036
:101900000CD2490DA1F58061491C40F0004005DB77
:10191000D1F11F0154BFC840C01770470020704765
:10192000014648B1B0FA80F18840C91CC1F5846114
:10193000090501EBD02140057047000000487047C1
:1019400024000020012000F0B9B80000704700001A
:10195000841A71EB030604D26E40001BB1411219C8
:1019600073414FF4001C1CEB410F34BF7CEB43066A
:1019700083E00C0DA4EB1356362E00F37C80012E71
:1019800045EAC32341DC43EA525312BFD20292021A
:101990005B08240545EAC12141EA5051D2EBC02041
:1019A000994125D407D1B0FA80F610FA06F162D039
:1019B0000020203608E0B1FA81F6B140C6F12002DD
:1019C00020FA02F21143B0404FEAF474B4EB4654EB
:1019D00034F001064FEA74040AD8D6F50016760DE5
:1019E00004F00044F04061FA06F25040F1404840F3
:1019F000C00A40EA415021F0004128BF5FEA50058B
:101A000050F1000044EBD12135E0DB0A45EAC12169
:101A1000C90AB6F120050EDD42EA0242120CC5F1F8
:101A2000200603FA06F6EB4042EA06056D429841AD
:101A300061F100010DE062FA06F5F240554063FAEB
:101A400006FC82EA0C02F3405A406D42904161EB81
:101A5000030111F4801F05D1641E620502D06D00E0
:101A60004041494121F48011430875F1004350F190
:101A7000000041EB045170BC70471CEB410F15D2C4
:101A800023F0004352EA43060BD04FEA4C0CBCEB68
:101A9000410F04D80C0D661E342EB7DDEBE7801A1B
:101AA000994150EA410608BF0021E4E708BF1CEB5A
:101AB000430F28BF6FF00001DDE7000080B5AFF3F2
:101AC0000080024A11001820ABBEFBE7260002008E
:101AD0002DE9FC47050017D0DFF8EC76DFF8F86653
:101AE000BC68F86800F003082878C10604F00C040C
:101AF00052D524B10C2C08BFB8F1010F2FD1386892
:101B0000810703D5A869002800F0548139680807C7
:101B10004EBF396871680909286A01F0F0018142F5
:101B200006D200F017FB002809D100F0FCF908E00C
:101B300000F0F9F92CB9286A00F00CFB002840F0FD
:101B4000398100F0AAFABA6800F09DFADFF8800641
:101B5000006800F059FB010000F01C81DDE1A8697C
:101B600090B1396841F00101396000F06FFB8146A6
:101B70003868810700F10C8100F068FBA0EB0900D8
:101B80000328F5D30320C8E138684008400000F07E
:101B9000DFF981463868810740F1FC8000F056FB90
:101BA000A0EB09000328F5D3ECE76868B0F5803FA7
:101BB00004D1386840F48030386011E0B0F5A02FCF
:101BC000386806D140F480203860396841F48031AB
:101BD00005E020F480303860396821F480213960D4
:101BE000686868B100F032FB81463868810300F113
:101BF000E38000F02BFBA0EB09006528F5D3C1E7DB
:101C000000F024FB81463868810340F1D58000F064
:101C10001DFBA0EB09006528F5D3B3E700F016FB28
:101C200000F07DF9C0F0EE80ACE7E86880B139687B
:101C300041F48071396000F009FB80463868410545
:101C400000F1CB8000F002FB00F069F9F6D399E7D0
:101C5000386820F4807000F07BF9804638684105D0
:101C600040F1C28000F0F2FA00F059F9F6D389E7AA
:101C700040084000706000F0E9FA80467068810713
:101C800040F1C48000F0E2FA00F049F9F6D379E7B8
:101C90000528306806D140F004003060316841F01A
:101CA000010105E0400840003060316821F0040186
:101CB0003160A86841F2893968B100F0C7FA8246FC
:101CC0003068810700F1D88000F0C0FAA0EB0A006C
:101CD0004845F5D356E700F0B9FA824630688107E7
:101CE00040F1CA8000F0B2FAA0EB0A004845F5D3F3
:101CF00048E700F400328A420FD1EA6B520800F440
:101D0000C001521EB1EB425F07D1296C490800F0B7
:101D1000C060491EB0EB416F1BD00C2C4AD0386814
:101D2000410147D43868C10044D400F00EF904469C
:101D30003868810140F1C78000F088FA001B032851
:101D4000F6D31FE700F082FA401B0328C0F0DA80C8
:101D500018E73868810104D400F0FDF804463868BB
:101D6000810100F1D98000F071FA001B0328F6D33D
:101D700008E70C2C1ED000F0E8F804463868810112
:101D800040F1C58000F062FA001B0328F6D3F9E6A3
:101D900000F0C9F82878C1070ED5082C05D00C2C06
:101DA00008BFB8F1030F7FF400AF3868810303D593
:101DB000686808B90120B0E02878810714D5042CA0
:101DC00005D00C2C08BFB8F1020F7FF42EAF386895
:101DD000410502D5E8680028ECD07868296920F030
:101DE000F85040EA01607860287801070ED56869EC
:101DF000002870683FF43CAF40F00100706000F0D4
:101E000025FA8046706881077FF508AF287841077A
:101E100039D5B86DC1004FF000080AD4B86D40F054
:101E20008050B8654FF00108B86D00F08050009008
:101E30000098DFF8A893D9F80000C10513D4D9F8A9
:101E4000000040F48070C9F8000000F0FFF98246FD
:101E5000D9F80000C10506D400F0F8F9A0EB0A009B
:101E60000328F5D38EE6A86801287FF411AF306807
:101E700040F0010030601CE7B8F1000F03D0B86DEE
:101E800020F08050B865A86A002845D002287FF469
:101E900070AFF868EA6A00F00301914201BF00F0F8
:101EA00070012A6B521EB1EB021F04D16A6B00F461
:101EB000FE41B1EB022F7FF430AFA96B07290CBFB5
:101EC0000021012115E7FA68DFF81413E86A0A40D7
:101ED000296B0243491E686B42EA0112E96B49080B
:101EE00042EA0022286C491E400842EA4152401E44
:101EF00042EA4062A86B000942EA4042FA6000F000
:101F00002AF80546386881017FF51CAF04E0FA68BD
:101F1000DFF8D0020240FA600020BDE8F687A0EBAF
:101F2000080003287047386840F0080038603968B6
:101F3000286A21F0F001014339607968E86921F4E9
:101F40007F4141EA002179607047386820F0807055
:101F5000386000F07BB9386840F080703860F9680C
:101F600041F08071F96000F071B92DE9F041040091
:101F7000884675D0DFF87062306800F00700404591
:101F800002D200F06FF86BD12078DFF83C52810765
:101F900006D5A068A96801F0F001814200F06CF854
:101FA0002078C1074AD56068032802D129688A01D0
:101FB00008E0022802D129688A0303E00028296882
:101FC00002D18A0702D44BE04A0549D5A96889089D
:101FD00040EA8100A86000F039F90746A868616806
:101FE00000F00C00B0EB810F28D000F02FF9C01BDF
:101FF00041F289318842F1D303201DE02078410766
:1020000005D5AA68E06822F4E0620243AA6021785C
:10201000080706D5A968206921F4605141EAC0018A
:10202000A96000F03AF8AA6800F02DF8BDE8F04188
:102030006748006800F0E8B8BDE8F08120788107C3
:1020400006D5A068A96801F0F001884200F014F8F4
:10205000306800F007008045D0D200F003F8CDD002
:102060000120E9E73168C90848EAC10131603068F8
:1020700000F007004045704704D2A96821F0F00144
:102080000843A86070475949C2F30312895C4F4A5C
:1020900001F01F01C8401060704770B54A4A554BA7
:1020A0009068D6680025002110F00C0006F00306A9
:1020B000514C03D00C2812D1012E1AD115682E07CD
:1020C00004D4444D2E68C6F3032502E01568C5F319
:1020D00003154A4E56F8255048B9294624E00428ED
:1020E00008BF214620D008281ED119461CE00C2824
:1020F0001AD1D06800F00300022803D0032808BFDB
:102100001D4600E02546D168D068D268C0F306209D
:102110004543C1F30210C2F34161401C491CB5FBA9
:10212000F0F04900B0FBF1F1084670BD2748304A95
:10213000006813683249C3F3022206E023482C4AA0
:10214000006813682E49C3F3C222895C01F01F01A5
:10215000C84070477CB52B4E054630680024C1004E
:1021600002D500F079F80EE0306840F08050306021
:10217000316801F080510091009800F06DF83168ED
:1021800021F080513160B0F5007F04D1802D0CD951
:10219000A12D09D304E0802D88BF032405D801D1E7
:1021A000022402E0702D00D101240F480168C90803
:1021B00044EAC1010160006800F00700A04201D0BC
:1021C000012076BD002076BD0010024020000020D6
:1021D0001C0000209410024090100240007000404B
:1021E0008C809DF9FCFFEEFE00200240F4490008BF
:1021F0000810024000127A000024F400FC48000895
:10220000744A00085810024070B50E4E04463078EB
:102210000025A0B14FF47A710B4AB1FBF0F11068C0
:10222000B0FBF1F000F0A9F848B9102C07D2002259
:1022300021464FF0FF3000F077F8B46000E0012550
:10224000284670BD1400002020000020014840688E
:10225000704700BF14000020DFF88800006800F419
:10226000C060704710B5DFF87C10B0F5007F0868DB
:1022700000F4C06015D1B0F5007F1BD00868DFF80E
:102280006820DFF8684020F4C06040F4007000F07F
:1022900020F84A6953050FD5002818BF401EF8D111
:1022A0000AE0B0F5806F05D0086820F4C06040F403
:1022B00080600860002010BD48694105FAD5032000
:1022C00010BDDFF82C00FFE7016841F48061016078
:1022D00070470860322013684343B3FBF4F0401C9E
:1022E00070470000007000402000002040420F00B6
:1022F000047000400901020002D42A48815470474A
:10230000294B02F00F021A4402F8041C7047274BB5
:1023100019684FF6FF020002114000F4E060084324
:10232000234908431860704738B5204B1C68C4F334
:102330000223C3F10704052C28BF04241D1D072D0B
:1023400034BF0023DB1E012505FA04F4641E21407E
:10235000994005FA03F35B1E1A401143BDE834406F
:10236000C8E70000010007D4012200F01F01114B53
:102370008A40400943F82020704710B5401EB0F154
:10238000807F01D3012010BD0B4C60600F214FF006
:10239000FF30FFF7AFFF0021A16007202060002081
:1023A00010BD000000E400E018ED00E00CED00E0DE
:1023B0000000FA0500E100E010E000E038B504009C
:1023C00001D1012032BD04F17805686808B900F038
:1023D00017F800F01AF808B100F031F800F02CF806
:1023E000012804D000F004F821F02A0116E032BDE3
:1023F0002068416821F490414160206881687047FD
:1024000000212970204600F0E5BA24206860206889
:102410000168490849000160606A7047816000F006
:1024200004F8BDE8324000F0E4B92068016841F0EA
:102430000101016020467047204600F065B8204643
:1024400000F074B92DE9F843054605F150060C4635
:10245000F06A20281746994635D10CB1380001D1D1
:10246000012031E0002070632121F162FFF7EEFED0
:10247000378080467780A868B0F5805F04BF286900
:1024800000281ABF20460027274604467088CDF84A
:1024900000900028434619D00022802100F020F847
:1024A000D0B92868002C12BF14F8011B37F8021BA2
:1024B000C1F3080101857088411E7180E6E7202084
:1024C000F062002000E00220BDE8F28300224021FB
:1024D00000F006F80028F2D02020F0620320F3E795
:1024E000284600F0CBB9286800F1080151E8001F28
:1024F000490800F10802490042E80010002870472E
:10250000296851E8002F7047F8B50446DFF85804F1
:102510002268DFF858741368A168034020690B43F0
:1025200061690343E0690B4303431360002551686D
:10253000E06821F4405101435160A369DFF824149D
:102540008A421CBF206A03439668DFF8240426F4FD
:10255000306633439360BA424FF40043DFF81464AB
:1025600032D1366806F00306032E3BD8DFE806F0CA
:10257000027161840127E169B1F5004F4FF6F076F1
:1025800040F0AB805FB1012F00F09F80022F0AD096
:10259000042F00F09D80082F00F09D80BFE0FFF722
:1025A000C5FD00280FD061684A0802EB4002B2FB6B
:1025B000F1F0A0F11001B142F0D20640C0F34200A8
:1025C00006432068C660ABE0DFF8AC73BA4221D1A5
:1025D000366816F00C0660D0042E3AD0082E28D0AB
:1025E0000C2E49D010278A42C5D137B1022F08D00E
:1025F000042F54D0082F55D091E0FFF797FD002805
:10260000E1D0626802EB4201884202D313038342A5
:102610004AD284E0DFF86473BA420CD1366816F00F
:1026200030063AD0102E14D0202E02D0302E23D0D7
:10263000D8E70227D7E7DFF84873BA420BD13668EC
:1026400016F0C00629D0402E03D0802EF1D0C02E27
:10265000EDE70427C7E7DFF82C73BA420ED13668DE
:1026600016F4407619D0B6F5807FF2D0B6F5007F2B
:10267000DFD0B6F5407FB5D10827B4E78A42B1D1A3
:10268000366816F4406608D0B6F5806FE1D0B6F52E
:10269000006FCED0B6F5406FC9E70027A3E7FFF77C
:1026A000FCFCACE71846ACE7010E560816EB002020
:1026B00069410023FEF7F2FCA0F54071DFF8C82263
:1026C00091422CD22168C8602AE0FFF737FD68E705
:1026D000FFF7E3FC65E7184665E747B1012F16D021
:1026E000022F07D0042F15D0082F16D017E0FFF7C0
:1026F0001DFDA8B1616800EB5100B0FBF1F0A0F145
:102700001001B1420BD2226880B2D06008E0FFF71E
:1027100015FDEEE7FFF7C1FCEBE71846EAE70125F8
:102720000020A066E0662846F2BD000090F8241064
:102730000A0706D502685368416B23F400430B4334
:10274000536090F82410CA0706D502685368816A5E
:1027500023F400330B43536090F824108A0706D506
:1027600002685368C16A23F480330B43536090F8C6
:1027700024104A0706D502685368016B23F48023AE
:102780000B43536090F82410CA0606D5026893687C
:10279000816B23F480530B43936090F824108A06D6
:1027A00006D502689368C16B23F400530B43936012
:1027B00090F824104A0610D502685368016C23F47F
:1027C00080130B435360036CB3F5801F05D153682E
:1027D000416C23F4C0030B43536090F824100A06A5
:1027E00006D501684A68806C22F4002202434A60E0
:1027F0007047F8B5054605F178040020E0606FF0F9
:102800007E47FFF723FD0646286801680A0711D5B1
:102810000097334600224FF40011FFF761FE48B1E4
:10282000FFF76EFE22F0800200F06EF8F8D1202053
:10283000606017E0286801684A0717D5009733469B
:1028400000224FF48001FFF74BFE78B1FFF758FEEE
:1028500022F4907200F058F8F8D1FFF744FEFCD152
:102860002020A060002121700320F2BD20206060A4
:10287000A0600020286668662070F2BD2DE9F04156
:10288000069C05460E4690461F462868C1693140A1
:10289000B1420CBF0120002040452DD114F1010FA1
:1028A000F3D0FFF7D3FCC01B844218D3BCB1286817
:1028B00001684A07E9D5802E18BF402EE5D0C169CE
:1028C0000A070ED4C1690A05DFD54FF4006100F094
:1028D00016F805F178002021C16000220270032063
:1028E0000BE0082100F00BF805F178000821C16029
:1028F00000220270012000E00020BDE8F0810162AA
:10290000284605E022F4F07241E8002000287047D4
:10291000026852E8003F23F4907342E80031002936
:10292000F6D1016801F1080252E8002F520801F1C6
:102930000803520043E800210029F2D1016E012969
:1029400008D1026852E8003F23F0100342E800314A
:102950000029F6D12021C0F880100022026682668C
:102960007047000000800040F369FFEF003801402D
:102970000024F40088100240004400400048004059
:10298000004C00400050004000FD0F0080B5414861
:10299000414900F00BF800B118E001BD80B53F4897
:1029A0003F4900F003F800B110E001BD01604FF4B1
:1029B000E13200230C2142608360C3600361416106
:1029C0008361C36103624362FFF7F8BCBDE8014065
:1029D00000F02CB910B5A8B004466846142100F0E8
:1029E00027F906A8882100F023F920682A492D4CF0
:1029F00088421FD1012200210692149106A800F0FE
:102A00001BF908B100F012F9606940F48040606180
:102A1000606900F4804005900598216841F002014A
:102A20002160C021226802F002020592022205986C
:102A30001D4822E01A4988422AD104220021069228
:102A4000169106A800F0F8F808B100F0EFF8E06879
:102A500040F48020E060E06800F480200590059854
:102A6000216841F0080121604FF44071226802F0B2
:102A700008020592022205980C480091019200215B
:102A800002910322072104910392694600F076FB2C
:102A900028B010BD10060020003801409806002024
:102AA000004800404C10024000040048000C004860
:102AB00080B500F081FC00F043F800F08DFC00F0E0
:102AC000D3FD00F039FE00F0A3FE00F0EFFEFFF7AB
:102AD0005DFFFFF763FF00F043FF00F0C9FF002236
:102AE0004FF47A71494801F005F8002001F09CF894
:102AF0000021002001F0CEF84549464808604FF417
:102B0000E1320C204861002300204A608B60CB60DA
:102B10000B618B61C8610B62486201F000F93E48AD
:102B200001F068F9002001F0F0F80028FAD0002048
:102B300001F0EBF80128FAD0002001F098F8FEE748
:102B400080B596B005A8442100F072F868461421BB
:102B500000F06EF84FF40070FFF784FB08B100F04E
:102B600065F801F05BF92D480168002221F0180199
:102B700001600C92012107910A910B9102226021C0
:102B80000D910F920121109111911C202821129179
:102B900005900722022113921491159105A8FEF7C2
:102BA00097FF08B100F042F80F2003210090019137
:102BB000002202920392049204216846FFF7D5F99D
:102BC00008B100F033F800F0D6F917B000BD80B5B9
:102BD000FFF73CFB124A11681060411A114801F0DE
:102BE00009F9BDE804404FF400710F4800F0BCBB88
:102BF00011B581B0064C47F23053012201A920469D
:102C0000FFF720FC0028F6D1019816BDA40800208B
:102C100088050020003801407C49000890100240DF
:102C2000F00800202C4900080008004872B6FEE7B2
:102C3000002201F0FBB800002DE9FC470546002406
:102C40002868DFF808640105A14621D5686E70B1D7
:102C5000B0F5800F17D0B0F5000F03D0B0F5400FDE
:102C600009D013E0326842F48032326004E000217F
:102C700000F07FF9044654B9F16F686E21F4400109
:102C80000143F16704E000F06EF9F3E70124A14687
:102C90002868C10421D5A86EA8B1B0F1807F17D0F3
:102CA000B0F1007F03D0B0F1407F04D013E0316871
:102CB00041F4803131607CB9F16FA86E21F0407130
:102CC0000143F16709E0002100F053F90446F2E7FF
:102CD00000F049F9FAE70124A146286881032BD5C1
:102CE000F06CC1004FF000080AD4F06C40F0805046
:102CF000F0644FF00108F06C00F0805000900098F4
:102D0000DFF82474386840F480703860FFF79EFA6A
:102D100082463868C10500F1F780FFF797FAA0EB0B
:102D20000A000328F5D30324A146B8F1000F03D00D
:102D3000F06C20F08050F0642878C10705D5F26F60
:102D4000A86B920840EA8202F2672978880705D5C5
:102D5000F16FE86B21F00C010143F1672978480716
:102D600005D5F16F286C21F030010143F167297816
:102D7000080705D5F16F686C21F0C0010143F167C8
:102D80002978C80605D5F16FA86C21F4407101437C
:102D9000F1672978880605D5F16FE86C21F4406168
:102DA0000143F1672968880505D5F16FE86D21F4C5
:102DB00040210143F1672968480505D5F16F286E68
:102DC00021F440110143F1672978480605D5F16FD8
:102DD000286D21F440510143F1672978080605D593
:102DE000F16F686D21F440410143F1672968C8051E
:102DF00005D5F16FA86D21F440310143F1672968D1
:102E000088041FD5F16FE86E21F040610143F1673E
:102E1000E86EB0F1006F0DD100F0A0F812E0FFF7FE
:102E200015FA001B41F289318842C0F08B804FF0C7
:102E300003097AE7B0F1806F04D100F099F801003E
:102E400018BF81462868010314D5F26F286F22F05D
:102E500040620243F267286FB0F1006F02D100F0C8
:102E60007DF807E0B0F1806F04D100F081F8010037
:102E700018BF81462868410314D5F26F686F22F0AD
:102E800040620243F267686FB0F1006F02D100F058
:102E900065F807E0B0F1806F04D100F069F8010037
:102EA00018BF81462868410418D5F26FA86F22F038
:102EB00040520243F267A86FB0F1805F03D1022154
:102EC00000F057F807E0B0F1005F07D1022105F1EB
:102ED000200000F0BDF8010018BF814628680104F9
:102EE00005D5F26FE86F22F080420243F26729684D
:102EF000C80306D5F16FD5F8800021F000410143E9
:102F0000F1674846BDE8F687002C7FF40DAFDFF887
:102F10005872386810F440701CBFD5F8841088428D
:102F20000BD03868396841F48031396020F4407042
:102F30003A6822F480323A603860C00706D5FFF75D
:102F400085F90446386881077FF569AF3A68D5F896
:102F5000840022F4407202433A60E6E6306840F4AE
:102F6000801030607047002105F1200000F070B83B
:102F70000121281D05E07D48016841F00401016040
:102F800070472DE9F04100F0E5F809D0F16801F053
:102F9000030181422BD150B300F0C8F80CD026E0D9
:102FA000012804D023D303281BD016D31FE0326896
:102FB00091071CD500F0C1F8306820F0806000F067
:102FC000C6F880463068010133D5FFF73FF9A0EB22
:102FD00008000328F6D3032536E031684A05E9D412
:102FE00005E031688A03E5D431684A03E2D401255B
:102FF0002AE0012C326909D13B695D4802405B0837
:1030000042EA01215B1E41EA435102E07B6900F084
:1030100081F83161306840F0806000F098F8044633
:10302000306801010CD4FFF711F9001B0328F7D316
:10303000D1E7B968002CDCD1326900F062F8E8E72A
:103040003169B8690143316158E000000C10024059
:103050002DE9F04100F07EF809D0F16801F003019C
:1030600081422BD150B300F061F80CD026E001284A
:1030700004D023D303281BD016D31FE03268910756
:103080001CD500F05AF8306820F0805000F05FF84E
:1030900080463068810026D5FFF7D8F8A0EB0800FD
:1030A0000328F6D3032529E031684A05E9D405E071
:1030B00031688A03E5D431684A03E2D401251DE072
:1030C0003B6900F027F87161306840F0805000F0F3
:1030D0003EF80446306881000CD4FFF7B7F8001BB7
:1030E0000328F7D3DEE7B9687269002CE8D100F055
:1030F00008F8E8E771697869014371612846BDE81D
:10310000F0811C48FB68024042EA01211B0941EAA8
:1031100043417047184802405B0842EA01215B1EA8
:1031200041EA43617047000000700040F068796830
:10313000C0F30210401C88427047F268796822F0A0
:1031400073021043491E40EA0110F060704730607E
:10315000FFF77CB80746054E38680C46F168002535
:1031600011F0030F70470000901002400010024061
:10317000FF809FFFFF80FDFFFF80FFF92DE9F84FE3
:103180000026824A0F2380460D4635E0804CA0453C
:1031900014BF0724062404FA0EF444EA0C0447F88A
:1031A0002140C7437B498C6807EA040C6C68E40241
:1031B00048BF40EA0C0CC1F808C0CC6807EA040C10
:1031C0006C68A40248BF40EA0C0CC1F80CC04C6803
:1031D00007EA040C6C68A40348BF40EA0C0CC1F871
:1031E00004C00C6807EA040C6F68FC0348BF40EA9F
:1031F0000C0CC1F800C0761C296831FA06F000F00A
:10320000A680012000FA06F414EA0100F3D0710050
:103210000327D5F804E08F406FEA040CFF430EF05B
:103220000304012C18BF022C15D1D8F8084007EA76
:10323000040EEC688C4044EA0E04C8F80840D8F844
:1032400004400CEA040E6C68C4F30014B44044EA71
:103250000E04C8F80440D5F804E00EF00304032C73
:103260000BD1D8F82C40CEF3C00E0CEA04040EFAB1
:1032700006FE4EEA0404C8F82C404FEA860E2C796C
:1032800004F00304032C21D0D8F80C4007EA040C06
:10329000AC688C4044EA0C04C8F80C402C7904F06B
:1032A0000304022C12D1F40808EB840C0EF01C0964
:1032B000DCF82040D5F810B003FA09FA24EA0A0431
:1032C0000BFA09F949EA0404CCF82040D8F8004088
:1032D00027402C7904F0030404FA01F13943C8F8BB
:1032E0000010696811F4403F85D0116841F0010178
:1032F00011600EF00C0E176807F00107009703FA33
:103300000EFC0099244FB10857F8214024EA0C0C18
:10331000B8F1904F08BF002418D0204CA04508BF3A
:10332000012413D01E4CA04508BF02240ED01D4C12
:10333000A04508BF032409D01B4CA04508BF0424A6
:1033400004D01A4CA0457FF421AF052423E7BDE843
:10335000F18F0069084018BF0120C0B270470AB160
:103360008161704781627047426901EA02039143BB
:1033700041EA0341816170470D4A136803421CBF53
:10338000106000F017B870470000000060100240A5
:1033900000180048000401400800014000040048F3
:1033A00000080048000C00480010004800140048C5
:1033B0001404014070470000032010B5FEF7A7FF7A
:1033C0000020FEF721FF0024002814BF012400F094
:1033D00047FD204610BD00002DE9F84386B0684641
:1033E0001421FFF725FC8448DFF810920468844D0F
:1033F000844EDFF8148244F01004046048F2041490
:10340000016801F0100105914FF4881705990268D1
:1034100042F004020260036803F004030593059977
:10342000026842F001020260036803F001030593A1
:103430000599026842F002020260036803F0020389
:1034400005930599026842F00802026000220068B4
:1034500000F0080005904FF48A7105984846FFF780
:103460007EFF002221464FF09040FFF778FF0022B8
:103470004FF214012846FFF772FF002241F281014A
:103480003046FFF76CFF01224FF400513046FFF742
:1034900066FF00224FF410714046FFF760FF0122E3
:1034A00020212846FFF75BFF012201214846FFF754
:1034B00056FF40F2151100F0CEF84846FFF75EFEC9
:1034C0006A200090019700210291484600F0A7F879
:1034D0004FF400504FF4041100F0AFF83F200B21DF
:1034E00000F0ABF80022029203200221009001912B
:1034F0000390082200F0A9F8009401200190002216
:103500000292039200F0A2F8002202920392082095
:10351000022100900191012200F097F8102000F0A4
:1035200081F800F093F8022100F07EF8E0200321FA
:1035300000900391052200F088F8012100F078F84E
:10354000284600F06CF8022000F06CF800F05EF8FD
:103550004FF2340100F07FF800F059F84CF60441C6
:1035600000F066F8304600F05AF843F2810100F0AE
:1035700072F800F051F84FF4107100F06CF840460A
:10358000FFF7FCFD4FF4C07100F052F8404600F028
:1035900046F800220292022003210090019003913C
:1035A000052200F037F8022100F03EF803210391D4
:1035B00078200722009000F02DF8122100F034F856
:1035C0004FF440700321009003910422049200F014
:1035D0001DF8002200211720FEF7A6FE1720FEF797
:1035E000C1FE002200212820FEF79EFE2820FEF7C3
:1035F000B9FE07B0BDE8F0834C100240001000484F
:1036000000040048000C00480008004869462846AD
:10361000FFF7B4BD049269463046FFF7AFBD694677
:10362000FFF7ACBD0B210090019100220292704780
:1036300000910197002102917047009001910022B2
:10364000029269464046FFF799BD049269464FF0E1
:103650009040FFF793BD0091012200210291039158
:103660000192694670470000012280B52D482E491D
:10367000027101604FF480728261002304220262B1
:10368000022101228360C16003614361C36143621F
:103690008262C362036300F0FBFB18B1BDE8014026
:1036A000FFF7C4BA01BD10B5A8B001A81421FFF7F7
:1036B000BFFA06A88821FFF7BBFA1C4C206870BB34
:1036C0004FF4803100220691269206A8FFF7B4FA43
:1036D00008B1FFF7ABFA1648416941F080714161CA
:1036E000416901F0807100910099026842F0100276
:1036F00002604FF42071006800F010000090022278
:1037000000980C4801910292002103910491062136
:10371000059101A9FFF732FD2068401C206028B008
:1037200010BD00006C08002020600140EC08002063
:103730004C1002400010004810B5314C3148206058
:1037400040F6146101200022E0606160A260226105
:103750006261A261E2612262204600F043FC08B18E
:10376000FFF764FA0021204600F098FC08B1FFF74B
:103770005DFA0021204600F0A6FC18B1BDE810401B
:10378000FFF754BA10BD10B5A8B0044601A8142123
:10379000FFF74EFA06A88821FFF74AFA2068194970
:1037A00088422BD18022002106921B9106A8FFF7A8
:1037B00043FA08B1FFF73AFA134C206840F00200D0
:1037C00020601222216801F0020100914FF4406153
:1037D00000980E48019102920121039103220421D5
:1037E0000591049201A9FFF7C9FCE06840F480004C
:1037F000E060E06800F480000090009828B010BD00
:1038000084070020005800404C100240000400488B
:1038100080B5224822490160022210214260C16025
:10382000042317220021836002614161816100F05D
:1038300075FC18B1BDE80140FFF7F8B901BD38B516
:1038400086B0044601A81421FFF7F2F92468144D4C
:10385000AC4221D11348416841F480714160416814
:1038600001F4807100910099026842F01002026038
:103870004FF47C41006800F0100000900222009894
:103880000948019102920021039103220A21059126
:10389000049201A9FFF772FC07B030BD2808002090
:1038A000001000A04C1002400010004880B52848CD
:1038B000284901604FF482724FF44071C160426048
:1038C0000721C16200234FF4007208218360036165
:1038D00043618261C3610362436283620363416344
:1038E00000F090FC18B1BDE80140FFF79FB901BDA1
:1038F00038B586B0044601A81421FFF799F9246869
:10390000144DAC4221D11448C16841F40041C1605A
:10391000C16801F4004100910099026842F004027C
:1039200002604FF4E051006800F0040000900222B1
:1039300000980A4801910292002103910322062176
:103940000591049201A9FFF719FC07B030BD0000F2
:1039500020070020003C00404C10024000080048B6
:10396000062280B53D4802714FF0A041022300229B
:103970000160C37143724281C26000F0B7FC18B1AC
:10398000BDE80140FFF752B901BD10B5A8B004462B
:1039900001A81421FFF74CF906A88821FFF748F980
:1039A0002068B0F1A04F52D14FF4005106914FF072
:1039B0008062012107910891219218210991072223
:1039C00002210B910C910A924FF480110D9106A8DF
:1039D000FFF732F908B1FFF729F9214C206840F0D0
:1039E000010020600022216801F0010100914FF4E4
:1039F0000071009801910292039200F02AF80221CE
:103A00000291002203924FF4E050032101900491AF
:103A10000A22059200F01DF8206840F480502060D2
:103A2000216801F4805100910098E168C8000CD42D
:103A3000E16841F08051E16000F014F8FEF741FCCC
:103A4000E06820F08050E06001E0FEF73AFC28B02A
:103A500010BD01A94FF09040FFF790BBA4000020DB
:103A60004C100240E06800F08050009000987047D1
:103A700080B51D481D49016000227F23FF2142605F
:103A80008360C160026142618261C26100F096FCA4
:103A900018B1BDE80140FFF7C9B801BD38B5A2B003
:103AA000044668468821FFF7C3F824680F4DAC42EE
:103AB00018D14FF400314FF4007200912192684602
:103AC000FFF7BAF808B1FFF7B1F80948016841F407
:103AD00000410160002200210320FEF725FC0320A5
:103AE000FEF740FC23B030BDA408002000280040B1
:103AF000901002402DE9F04104460F4694F8200052
:103B00000128164608BF022036D000F056F8FF25DF
:103B100000F043F801F0800161F49061C160206819
:103B2000C168480610D4FEF791FB80462068C16842
:103B3000480709D4FEF78AFB00F064F8F6D3206842
:103B4000456200F032F817E02068476100F016F88F
:103B5000DFF8CC00016841F480110160826842F412
:103B6000801282602068816841F48041816000F0A9
:103B70000CF8456200F04DF8BDE8F08120688168DE
:103B8000C90846EAC106866070472068816841F42A
:103B9000806181600121206870472068816821F47C
:103BA000806181602068C1687047032184F821101A
:103BB000002084F8200003207047012084F82000B2
:103BC000022184F82110CA20226850625321206803
:103BD0004162704710B50446DFF848104FF480107A
:103BE00008602068C268510508D5C26802F08002EA
:103BF00062F49062C2602046FEF7E9FF012184F87A
:103C0000211010BDA0EB080040F2E9318842704756
:103C1000032184F82110002084F820007047000060
:103C2000000401401404014080B5010086B00AD1AF
:103C3000DFF894110A6842F002020A60096801F094
:103C40000201009100990FF2901252F82030019376
:103C500001220292002302220492039301A9DFF8B9
:103C60006C2152F82000FFF789FA07B000BD10B5AB
:103C700000F007F8BDE810400122FFE789B2FFF726
:103C80006EBBDFF848410FF2501353F8201054F880
:103C90002000704710B50446DFF82C0186B002689A
:103CA00042F0040202600B000068DFF8242100F0FB
:103CB0000400009000980FF224100BD130F814107B
:103CC000019100230293012102230391049300F048
:103CD00075F818E0012916D130F8141001910393FA
:103CE00003214FF488130491029300F067F80FF258
:103CF000F00030F8144000220F2160B2FEF714FBF0
:103D000060B2FEF72FFB06B010BD0FF2D002DFF855
:103D1000C03032F8101053F82000FFF71ABB70B50E
:103D20000446200086B00D461CD1DFF89C000168D7
:103D300041F002010160026802F002020092009963
:103D4000026842F002020260036803F0020300937B
:103D50000099426942F480424261406900F4804027
:103D6000009000980FF27C010FF2800031F81420CF
:103D7000184E0192022102910491321D00210391FB
:103D800030F81410059100F019F80FF25C010FF2F1
:103D9000600031F8142001920221029130F81410D1
:103DA000059106EB840401A9A068FFF7E7F92068F4
:103DB00028602846FEF702FB06B070BD01A952F844
:103DC0002400FFF7DBB900004C1002400000002087
:103DD0000400002008000020004000000020000037
:103DE00028000000400000008000000007000000E4
:103DF000070000000EB4C0B5024603A800210190E0
:103E0000009101AB0121044878440C30FCF7BCF967
:103E100006BC5DF810FB00BF1F0C000002480168E3
:103E200041F48071016070470070004000B500BF30
:103E3000130096469446103928BFA0E80C50FAD8D3
:103E40005FEA417C28BF0CC048BF40F8042BC9077B
:103E500028BF20F8022B48BF00F8012B00BD00004E
:103E60000A4881B0816841F001018160816801F0F8
:103E7000010100910099026842F0805202600068DE
:103E800000F080500090009801B070475810024038
:103E900070B5040005D000F067F8291D51F8200026
:103EA00008B1012070BD2046FFF7FDFB2868401CCB
:103EB0002860296801291AD1DFF8B810086820F0B5
:103EC000804008600A68A06802430A600B6823F417
:103ED0007F030B602079012805D10A68E068401E45
:103EE00042EA00420A60086840F00040086020682A
:103EF000016821F471410160036826696269A16962
:103F000016430E433343036003681B091B01036020
:103F10000268E369216A0B431A430260826822F453
:103F20005F0282608168A36A626A5B1E42EA0342A2
:103F300011438160416801F0070141604168236BD2
:103F4000E26ADB0043EA022319434160012201686F
:103F500041F08001016084F8342000F00DF8291D43
:103F600041F82040002070BD2068DFF85C5000F070
:103F700003B80000006001401249884201D10020CE
:103F800070471249884201D1012070471049884288
:103F900001D1022070470F49884201D104207047A7
:103FA0000D49884201D1052070470C49884201D152
:103FB000062070470A49884201D107207047032034
:103FC0007047000000600140C808002020600140E8
:103FD0004060014080600140A0600140C06001403D
:103FE000E060014038B5040001D1012032BD04F188
:103FF0004005687820B9002129702046FFF7C3FBEF
:1040000000F043F86068216820F070600861206863
:10401000816821F400418160E06821680128A0687E
:104020000CBF40F4004040F404408860E06802287F
:10403000206841680CBF41F4006121F400614160D7
:104040002068416841F0007141F4004141602068FE
:10405000C16821F40041C16060692169A26901431E
:10406000206841EA0221C160206AE16922680143B7
:1040700011602068016841F0010101600020686062
:10408000202169702063A87032BD242068702068E8
:1040900001684908490001607047000030B500F12F
:1040A00040025378202B0CD11478012C09D000F059
:1040B0001DF824F480541C6003681D6829431960AE
:1040C00020E0022030BD30B500F140025378202BB3
:1040D0000AD11478012C07D000F008F824F4706499
:1040E00044EA01241C600DE0022030BD012313705E
:1040F0002424547003681D686D086D001D600368FA
:104100001C6870470068016841F0010101602020CF
:10411000507000211170002030BD0000F8B5044639
:10412000FEF794F806460CB90120F2BD04F13805FB
:10413000687838B9002129702046FFF780FB41F2EA
:104140008830A860334620680168A26821F4706155
:10415000521E41EA0221016000F028F801001ED140
:1041600022681049136866680B40E16843EA0663F9
:104170000B4313600C4923685E68276962690E402F
:1041800046EA0746A16916430E435E6021680A6845
:1041900042F001020A600021696001226A70002178
:1041A0002970F2BDEFFFFF00FEF8E0FF0022A868D3
:1041B000009020212046FFE72DE9F041069C0546AE
:1041C0000E4690461F462868816816EA010018BF0F
:1041D0000120404512D014F1010FF4D0FEF736F85B
:1041E000C01B844201D3002CEDD1042085F8390096
:1041F0000120E96B41F00101E96300E00020BDE826
:10420000F081000038B5040001D1012032BD606AA0
:1042100028B900F066F805D00021E16102E0002035
:10422000206160610020A06204F15C05687820B91B
:10423000002129702046FFF75BFB0220687000F028
:104240004AF8E168B1F5E06F04D90020B1F5706F6C
:1042500003D104E04FF4805001D00021A1626168D5
:10426000A268237C01F4827102F404421143227D8E
:1042700003F002031943A36902F001021143227FF4
:1042800003F40073194394F8203002F0380211430C
:10429000A26A03F080031943236802F40052114319
:1042A0001960A16994F8242094F83430090C01F0C5
:1042B000040102F010021143E26803F008031943FD
:1042C00002F470621143084321684860002068606E
:1042D0000121697032BD2068016821F04001016050
:1042E00070476068B0F5827F704700007CB50400BD
:1042F0004FD004F29445687820B9002129702046F7
:10430000FFF743FB032068700021A171206800F0D3
:104310003DF983B000F04DF80EBC206800F004F9C0
:10432000002834D12068002100F036F978BB002144
:10433000242000260DE010FB01F2224401235375D6
:104340001175D1850023491C1376D661136256621C
:10435000C9B222799142EEDB00210DE010FB01F29F
:10436000224402F51572002311705370491C167116
:104370009360D6601361C9B222799142EEDB83B0BB
:1043800000F017F80EBC206800F032F918B10220D6
:104390006870012076BD607401216970207B01285E
:1043A00004BF204600F026FA206800F010FA002032
:1043B00076BD211D68460D22FCF7C6BF38B5044600
:1043C0000120002C4BD094F8210028B9002184F85A
:1043D00020102046FFF762FB022184F8211020689C
:1043E000C168CA0637D4CA2141625320226850628C
:1043F000204600F04CF8B8B92168DFF820018A683F
:1044000002408A602268936865682169A0690D434B
:1044100005432B4393602068E168016120680169CE
:10442000A26841EA02410161204600F050F8010013
:104430000BD12168CA6C92089200CA642268D36CBE
:10444000E56961690D432B43D364FF2221680300B2
:104450004A6204D100E00020012184F8211032BD1D
:1044600038B504462E482168C860FDF7EFFE0546C2
:104470002068C168880608D4FDF7E8FE401B40F2BA
:10448000E9318842F4D3032032BD002032BD70B53B
:10449000044600252068C1684A0616D44FF0FF3153
:1044A000C160FDF7D3FE064609E0FDF7CFFE801B95
:1044B00040F2E931884224BF032584F82150216865
:1044C000C868410601D4032DEFD1284670BD70B5F0
:1044D000144D0446686820F0800068600026296852
:1044E000880608D42046FFF7BBFFA0B1032084F85C
:1044F000210003260FE0286820F0200028602046D5
:10450000FFF7AEFF18B1032084F8210003262868C6
:1045100040F020002860304670BD0000BFFF8FFFD4
:104520005FFF0300082800400FB4C16841F040015C
:10453000C16000220092DFF8B412009A521C00926F
:10454000009A8A4217D20369002BF6D50023009304
:10455000026942F001020261009A521C0092009A24
:104560008A4208D20369DA07F6D4002204E08163A4
:10457000104604B0704703229DF80D100029816B8E
:104580000CBF41F4803121F48031F0E781684908A3
:10459000490081600020704738B504460025E06876
:1045A00020F0C0400129E0600FD1E06840F00050E9
:1045B000E0600A2000F032F960690A35C10701D4D1
:1045C000C82DF6D3C82D11D10EE069B9E06840F0CE
:1045D0008040E0600A2000F021F960690A35C107D7
:1045E000F0D5C82DF6D3EDE7012032BD002032BD55
:1045F0000EB42DE9F84705460446002600210020A8
:1046000004EB8102491C0F29C2F80401F8D39DF87C
:104610002EA0BAF1000F05F5006710D1786840F0C0
:1046200002007860A06B20F40010A063216841F0C4
:1046300040012160206840F08000206003E0A06B12
:1046400040F40010A06305F5606303211E6020465E
:1046500000F0B5F81021204600F070F800B10126F6
:10466000204600F08CF800B1012600203861786106
:10467000F8612A469DF824304FF67F3C4FF0904E6B
:104680004FF00069002504E00D600D61C1F808C01D
:10469000401C98422AD202EB401101F51061D1F87A
:1046A0000080B8F1000FEFD5002806BF02F51068B2
:1046B000C8F80090C1F800E0E7E705600561C0F8C0
:1046C00008C0491C994213D202EB411000F530603A
:1046D000D0F80080B8F1000FEFD5002906BF02F531
:1046E0003068C8F80090C0F800E0E7E70021E9E78B
:1046F000386920F480703861A5616FF08040606196
:10470000A169DFF8EC0041F01001A161A16901434A
:10471000A1619DF82A0018B1A06940F00800A061CD
:10472000BAF1010F05D1A06940F0804040F00400CB
:10473000A0613046BDE8F2075DF810FB18B5002215
:104740000092DFF8A820009B5B1C0093009B934223
:1047500013D20469002CF6D500248901009441F09D
:10476000200101610099491C00910099914204D2F5
:1047700003699906F6D4002012BD032012BD81B052
:1047800000210091DFF86410009A521C0092009AF8
:104790008A4212D20369002BF6D50023009310221F
:1047A0000261009A521C0092009A8A4205D2036963
:1047B000DA06F6D4002001B070470320FBE700F5CD
:1047C000006002681143FFE701600020704700F5B8
:1047D000606100F500600A68920892000A60416812
:1047E00041F0020141600020704700000100000F0D
:1047F00000383C80016800F2CC4001220023C260F6
:104800000370886940F000608861486D40F0805016
:1048100040F00300486500207047000038B50446AA
:10482000FDF714FD14F1010F054602D0044801788C
:104830006418FDF70BFD401BA042FAD331BD00BF49
:1048400014000020FEE7FEE7FEE7FEE7FEE7704704
:104850007047704700F02EB80148FFF7BBB9000061
:10486000A408002080B52020FEF786FD4020FEF73A
:1048700083FD8020FEF780FDBDE802404FF480708C
:10488000FEF77ABD80B54FF48060FEF775FD4FF4FA
:104890000060FEF771FD4FF40050FEF76DFD4FF420
:1048A0008040FEF769FDBDE802404FF40040FEF78E
:1048B00063BD00000248416802788A184260704770
:1048C0001400002030B5016884684218416802EB8A
:1048D0005103C9070BD54C4409E012F9011B12F82A
:1048E000015B002904F8015B05D5491CF9D19A4206
:1048F000F3D10C3030BD491EF1D5F8E7A086010098
:10490000400D0300801A060000350C0040420F00E5
:1049100080841E0000093D0000127A000024F4008B
:1049200000366E010048E801006CDC02525443205E
:1049300057616B655570205472696767657265646D
:104940002120496E74657276616C3A20256C752061
:104950006D730A0010B5074979441831064C7C4440
:10496000163404E00A68081D114488470146A14234
:10497000F8D110BD500000006C000000507265734B
:1049800073205573657220627574746F6E20746F36
:1049900020707574204C454432204F4E200A000090
:1049A0004EF68851CEF20001086840F470000860AD
:1049B000BFF34F8FBFF36F8F4FF00070E1EE100A1F
:1049C00070470000B7C5FFFF54080000A400002096
:1049D00000000000F1FEFFFFDC010000F00000001D
:1049E000000000200248016841F470010160704736
:1049F00088ED00E000000000000000000102030458
:104A00000607080900F00DF8002801D0FFF7A2FF03
:104A1000AFF300800020AFF30080FEF749F800F00C
:104A200002F80120704700F001B800000746384640
:104A3000FDF744F8FBE738B504460D46284600F07C
:104A400005F8A84218BF0024204632BD0149FEF7F0
:104A5000CFB800BF5C0000200148804701480047F4
:104A6000E5490008694A0008AFF30080FFF798FFA6
:104A7000FFF7C8FF000000000102030400002E0041
:104A8000FFF7FEBFFFF7FEBFFFF7FEBFFFF7FEBF5A
:104A9000FFF7FEBFFFF7FEBFFFF7FEBFFFF7FEBF4A
:104AA000FFF7FEBFFFF7FEBFFFF7FEBFFFF7FEBF3A
:104AB000FFF7FEBFFFF7FEBFFFF7FEBFFFF7FEBF2A
:104AC000FFF7FEBFFFF7FEBFFFF7FEBFFFF7FEBF1A
:104AD000FFF7FEBFFFF7FEBFFFF7FEBFFFF7FEBF0A
:104AE000FFF7FEBFFFF7FEBFFFF7FEBFFFF7FEBFFA
:104AF000FFF7FEBFFFF7FEBFFFF7FEBFFFF7FEBFEA
:104B0000FFF7FEBFFFF7FEBFFFF7FEBFFFF7FEBFD9
:104B1000FFF7FEBFFFF7FEBFFFF7FEBFFFF7FEBFC9
:104B2000FFF7FEBFFFF7FEBFFFF7FEBFFFF7FEBFB9
:104B3000FFF7FEBFFFF7FEBFFFF7FEBFFFF7FEBFA9
:104B4000FFF7FEBFFFF7FEBFFFF7FEBFFFF7FEBF99
:104B5000FFF7FEBFFFF7FEBFFFF7FEBFFFF7FEBF89
:104B6000FFF7FEBFFFF7FEBFFFF7FEBFFFF7FEBF79
:104B7000FFF7FEBFFFF7FEBFFFF7FEBFFFF7FEBF69
:104B8000FFF7FEBFFFF7FEBFFFF7FEBFFFF7FEBF59
:104B9000FFF7FEBFFFF7FEBFFFF7FEBFFFF7FEBF49
:104BA000FFF7FEBFFFF7FEBFFFF7FEBFFFF7FEBF39
:104BB000FFF7FEBF14000400480008004800380159
:104BC00040000400480004004801F9000010FC0007
:104BD0001E093D007C4A00087C4A00087C4A000807
:104BE0007C4A00087C4A00087C4A00087C4A00088D
:104BF000F8FF0B7E4A00087C4A00087C4A0008FA4D
:104C0000FF15000002040101D80700202808002039
:104C1000D8070020D8070020FC0003D8070020FC9C
:0C4C20000007A00000208C000020E00035
:0400000508004A693C
:00000001FF
